S01A0000537065616B657273436F6E74726F6C6C65722E73726563A8
S113000019C08DC08DC08DC08DC08DC08DC08DC0F8
S11300108DC08DC08DC08DC08DC08DC08DC08DC074
S11300208DC08DC091C091C091C08AC08AC08AC061
S11300308EC089C011241FBECFEFD4E0DEBFCDBF78
S113004021E0A0E0B1E001C01D92A930B207E1F7C0
S1130050E9D0F4C0ECEBF0E08081846980831092F5
S11300600201809103018E7F809303010895803102
S113007049F018F4883031F00895883151F088320D
S113008019F1089582E88093BB008091BC008F6DC4
S113009043C080910201843019F08091020101C0B3
S11300A088E08093BB008091BC0084688093BC008E
S11300B080910101811105C0809102018F5F8093BD
S11300C0020110920001089580910001811118C06D
S11300D080910101E0910201F0E0813019F4EC5FBC
S11300E0FE4F02C0ED5FFE4F80818093BB00809184
S11300F0BC0084688093BC0081E080930001089573
S113010080910101813009F4A5CF809102018530ED
S1130110D8F78091BC00846A8093BC000895189538
S11301201895189518951895189518951895189563
S11301301895189518951895189518951895189553
S113014018951895189518951895189518951F923F
S11301500F920FB60F9211242F933F934F935F93F7
S11301606F937F938F939F93AF93BF93EF93FF937B
S11301708091B9009091BC0090689093BC007894F1
S11301809091030190FF02C0887F71DFFF91EF918E
S1130190BF91AF919F918F917F916F915F914F919B
S11301A03F912F910F900FBE0F901F9018956530BF
S11301B019F0663081F00895109202011092010145
S11301C0809103018160809303018091BC00846A63
S11301D08093BC0008954BCF15B881E084B918B85A
S11301E017B81BB880E28AB98DE28093B800E9EBB6
S11301F0F0E080818083ECEBF0E080818164808397
S113020089E18093C4001092C5001092C00088ED6B
S11302108093C10086E08093C20080B7806880BF6D
S113022078940895D9DF65E08FEFC1DF80910301F1
S11302308F3F19F483B7817F83BFFFCFF894FFCF3B
S9030000FC
