:1000000019C05CC05CC05CC05CC05CC05CC05CC053
:100010005CC05CC05CC05CC05CC05CC05CC05CC000
:100020005CC05CC051C15FC05FC059C059C059C0FD
:100030001AC158C011241FBECFEFD4E0DEBFCDBF20
:1000400021E0A0E0B1E001C01D92A930B207E1F7C4
:100050008AD18BC1ECEBF0E08081846980831092BF
:100060000201809103018E7F80930301089515B8EA
:1000700081E084B918B817B81BB880E28AB98DE25C
:100080008093B800E9EBF0E080818083ECEBF0E056
:1000900080818164808389E18093C4001092C500CF
:1000A0001092C00088E98093C10086E08093C2006E
:1000B000589A80B7806880BF7894089518951895ED
:1000C00018951895189518951895189518951895C8
:1000D00018951895189518951895189518951895B8
:1000E00018951895189518951895E0ECF0E0908102
:1000F00095FFFDCF8093C60008958230C1F018F4BB
:10010000882331F033C08330F1F0843041F12EC0C8
:10011000862F90E084529F4F8F3F910509F044F560
:100120006452E4E0F1E06083618381E00895862F0A
:1001300090E08E509F4F8C3F9105E4F46E50609399
:10014000060181E00895862F90E08E509F4F8B3FEF
:10015000910594F46E506093070181E00895E4E006
:10016000F1E08481682B648381E0089580E0089544
:1001700080E0089580E0089580E00895653019F0EA
:100180006E3F81F00895109202011092010180915A
:100190000301816080930301ECEBF0E08081846ACD
:1001A00080830895803149F018F4883031F0089543
:1001B000883161F0883229F1089582E88093BB008C
:1001C000ECEBF0E080818F6D8083089580910201D7
:1001D000843019F08091020101C088E08093BB0057
:1001E000ECEBF0E0808184688083809101018111D3
:1001F00005C0809102018F5F80930201109200017F
:1002000008958091000181111CC08091010181300D
:1002100039F4E0910201F0E0EC5FFE4F808106C00E
:10022000E0910201F0E0ED5FFE4F80818093BB0022
:10023000ECEBF0E080818468808381E080930001B2
:10024000089580910101813011F404DF08958091B7
:100250000201853030F4ECEBF0E08081846A808329
:100260000895F8DE08951F920F920FB60F92112491
:100270002F933F934F935F936F937F938F939F93AE
:10028000AF93BF93EF93FF938091B900ECEBF0E055
:1002900090819068908378949091030190FF03C0BF
:1002A0006EEF887F6BDFFF91EF91BF91AF919F91D0
:1002B0008F917F916F915F914F913F912F910F900F
:1002C0000FBE0F901F9018951F920F920FB60F92AE
:1002D00011242F933F934F935F936F937F938F934B
:1002E0009F93AF93BF93EF93FF938091C0008C7166
:1002F00021F085E490E0F9DE25C08091C6008530CC
:1003000028F4823030F4882321F019C0853099F028
:1003100016C0E0ECF0E090819923ECF76091C60004
:10032000ECDE882321F08FE490E0DFDE0BC085E473
:1003300090E0DBDE07C065E08FEF20DF03C085E4DF
:1003400090E0D3DEFF91EF91BF91AF919F918F919C
:100350007F916F915F914F913F912F910F900FBEC1
:0E0360000F901F90189583DEFFCFF894FFCF0B
:00000001FF
